:020000040000FA
:10000000B0050020E9020000F1020000F302000048
:10001000F5020000F7020000F902000000000000F5
:10002000000000000000000000000000FB020000D3
:10003000FD02000000000000FF020000911D000012
:10004000030300000503000007030000090300008C
:100050000B030000951E00000F03000011030000B9
:10006000130300001503000017030000190300002C
:100070001B0300001D0300001F03000021030000FC
:1000800023030000250300002703000029030000CC
:100090002B0300002D0300002F030000310300009C
:1000A000330300003503000037030000390300006C
:1000B0003B0300003D0300003F030000410300003C
:1000C000430300004503000047030000490300000C
:1000D0004B0300004D0300004F03000051030000DC
:1000E00053030000550300005703000059030000AC
:1000F0005B0300005D0300005F030000610300007C
:10010000630300006503000067030000690300004B
:100110006B0300006D0300006F030000710300001B
:1001200073030000750300007703000079030000EB
:100130007B0300007D0300007F03000081030000BB
:10014000830300008503000087030000A103000073
:100150000000000000000000A3030000A503000051
:10016000A7030000A903000000000000AB0300008B
:10017000AD030000AF030000B1030000B3030000B3
:10018000B5030000B7030000B9030000BB03000083
:10019000BD030000BF030000C1030000C303000053
:1001A000C5030000C7030000C9030000CB03000023
:1001B000CD030000CF030000D1030000D3030000F3
:1001C000D5030000D7030000D9030000DB030000C3
:1001D000DD030000DF030000E1030000E303000093
:1001E000E5030000E7030000E9030000EB03000063
:1001F000ED030000EF030000F1030000F303000033
:1002000000F002F800F04DF80AA090E8000C8244DB
:100210008344AAF10107DA4501D100F042F8AFF2B8
:10022000090EBAE80F0013F0010F18BFFB1A43F0D4
:10023000010318472C5D00004C5D0000103A24BFFC
:1002400078C878C1FAD8520724BF30C830C144BF3B
:1002500004680C607047000000230024002500267D
:10026000103A28BF78C1FBD8520728BF30C148BF19
:100270000B607047642900F06381732900F02584C6
:10028000002070471FB504F069FE00F089FB0400F0
:100290000020002104F04CFE401C60601FBD10B522
:1002A00010BD00F04BFE1146FFF7ECFF03F060F8C5
:1002B00000F069FE03B4FFF7F2FF03BC00F06CFE30
:1002C000EFF3108072B67047EFF310807047EFF3D2
:1002D000108062B6704730BF704780F31188704756
:1002E000EFF31180704700004548804745480047BC
:1002F000FEE7FEE7FEE7FEE7FEE7FEE7FEE7FEE7D6
:10030000FEE7FEE7FEE7FEE7FEE7FEE7FEE7FEE7C5
:10031000FEE7FEE7FEE7FEE7FEE7FEE7FEE7FEE7B5
:10032000FEE7FEE7FEE7FEE7FEE7FEE7FEE7FEE7A5
:10033000FEE7FEE7FEE7FEE7FEE7FEE7FEE7FEE795
:10034000FEE7FEE7FEE7FEE7FEE7FEE7FEE7FEE785
:10035000FEE7FEE7FEE7FEE7FEE7FEE7FEE7FEE775
:10036000FEE7FEE7FEE7FEE7FEE7FEE7FEE7FEE765
:10037000FEE7FEE7FEE7FEE7FEE7FEE7FEE7FEE755
:10038000FEE7FEE7FEE7FEE7FEE7FEE7FEE7FEE745
:10039000FEE7FEE7FEE7FEE7FEE7FEE7FEE7FEE735
:1003A000FEE7FEE7FEE7FEE7FEE7FEE7FEE7FEE725
:1003B000FEE7FEE7FEE7FEE7FEE7FEE7FEE7FEE715
:1003C000FEE7FEE7FEE7FEE7FEE7FEE7FEE7FEE705
:1003D000FEE7FEE7FEE7FEE7FEE7FEE7FEE7FEE7F5
:1003E000FEE7FEE7FEE7FEE7FEE7FEE7FEE7FEE7E5
:1003F000FEE7FEE704480549034A054B7047000045
:10040000751E000001020000B0030020B0050020AE
:10041000B003002010B500F0C3FA001D10BD00BFEE
:10042000114B000010B50446FFF7F4FF0068005DB3
:10043000000704D5DF2C02D0A4F1200010BD204617
:1004400010BD00000FB41CB5074B06AA7B446946DB
:100450000090059800F007FB0020694600F016FBAD
:100460001CBC5DF814FB00003D0600000FB41CB579
:100470000C0007AA009001D02044401E074B7B448B
:1004800069460190069800F0EEFA002C03D0694608
:10049000002000F0FBFA1CBC5DF814FB1506000000
:1004A00070B5044685690068C10601D5302600E0B4
:1004B0002026C00707D070BDD4E9012130469047FF
:1004C000206A401C20626D1EF6D570BD70B50446D2
:1004D00085690078C00707D170BDD4E901212020CB
:1004E0009047206A401C20626D1EF6D570BD70B525
:1004F0000C460546012A05D02878800600D5EA6911
:10050000002302E0012305E05B1C934202D2E05C81
:100510000028F9D1A869E618C01AA861286A184409
:1005200028622846FFF7BCFF04E0D5E9012114F852
:10053000010B9047B442F8D32846FFF7C7FF70BDC0
:100540002DE9F0410646002410687529314616A5AC
:1005500010D0AFF30080002802DA404213A507E074
:1005600031688A0701D512A502E0490704D511A513
:10057000012401E0AFF3008000210A2206F12407E4
:1005800009E0B0FBF2FCB0FBF2F302FB1C003030E0
:1005900078541846491C0028F3D123462A46304691
:1005A000BDE8F04100F000BA000000002D0000009E
:1005B0002B000000200000002DE9F05F8946044672
:1005C0004FF0000ADFF824B1FB44C0F820A0204619
:1005D000E168884700287DD0252806D0D4E901218C
:1005E0009047206A401C2062F1E700255F462046C4
:1005F000E16888472028064607DB312E05D2B81966
:1006000010F8200C08B10543F1E7A80701D525F043
:100610000405C4F81CA00027C4F818A02A2E09D08D
:10062000304601F053FF38B304EB8708303EC8F87A
:10063000186019E059F8041B204604EB8702916109
:10064000E1688847012F064618D1E069002820DAC2
:1006500025F020051DE0D8F8180000EB800006EB1F
:1006600040003038C8F818002046E1688847064640
:1006700001F02CFF0028EED1012F0AD02E2E08D138
:100680002046E16888477F1C0646022F45F020057A
:10069000C4DBA069002803DA404245F00105A061EF
:1006A000E80701D025F01005A6B1A6F141001928F0
:1006B00002D8203645F400654A463146204625607A
:1006C0004D46FFF7D7FD60B1012807D0ED1D25F09D
:1006D000070000E007E000F1080978E705F10409E8
:1006E00075E730467AE7206ABDE8F09F1C590000A4
:1006F0000FB400B58DB010A9099000910B904FF088
:10070000FF300A9000200C90064878440690064876
:1007100078446A4607900F9909A800F0EFF90DB0E8
:100720005DF814FB0F040000270400002DE9FF5FB3
:100730001D464FF0FF3B91464FF000085F46D5E95C
:100740000146A96901987F1C8847296A8246884723
:100750000028F6D1BAF1FF3F0CD0002E24F4C0647B
:1007600019DD600614D5BAF12B0F09D0BAF12D0F9F
:100770000ED103E0584604B0BDE8F09F44F4806415
:10078000A96901987F1C8847761E8246002E02DDEB
:10079000BAF1300F03D0B9F1000F26D032E0A969C9
:1007A000761E01987F1C44F400748847002E824610
:1007B00005DDBAF1780F06D0BAF1580F03D0B9F1C0
:1007C000000F10D01EE0B9F1000F02D0B9F1100FE8
:1007D00018D1A969761E01987F1C24F400748847FB
:1007E0008246102002E0082000E00A20814609E04D
:1007F000A96908FB0908761E01987F1C44F400745F
:1008000088478246002E05DD4946504600F061F9D2
:100810000028EDDAE96901988847A00502D46FF055
:100820000100A8E7E00725D1600613D5600502D5D1
:10083000C8F1000000E0404629680A1D2A600968E6
:10084000220501D5087015E0220701D5088011E0C6
:1008500008600FE02868011D29600068210502D5A5
:1008600080F8008006E0210702D5A0F8008001E0B2
:10087000C0F8008038467EE7401ECAB210F8011F5B
:100880008A4202D00029F9D10020704740EA0103D2
:10089000024630B59B0710D14FF0013400E008C28A
:1008A00008C91D1B9D4315EAC41FF8D013F0FF01B2
:1008B00002F8011B0DD01B0AF8E711F8013B002BD1
:1008C00002F8013B05D011F8013B002B02F8013B77
:1008D000F3D130BD4FF000020429C0F0128010F0B7
:1008E000030C00F03D81CCF1040CBCF1020F18BFE9
:1008F00000F8012BA8BF20F8022BA1EB0C0100F09F
:100900002FB95FEAC17C24BF00F8012B00F8012B4E
:1009100048BF00F8012B70474FF0013C50F8042B02
:1009200051F8043B9A4221D1A2EB0C03934313EA02
:10093000CC1317D150F8042B51F8043B9A4215D12F
:10094000A2EB0C03934313EACC130BD150F8042B06
:1009500051F8043B9A4209D1A2EB0C03934313EAEA
:10096000CC13DBD04FF00000704700BFD01A01BAA3
:10097000B1FA81F101F0180122FA01F0CB40C1F186
:100980002001DBB2C0B2C01A2CFA01F3D11A914394
:1009900011EAC311E6D170477047704770470000F5
:1009A000004870476C0300202DE9F0470D4699463A
:1009B0009246044600F124080168880604D5E069DF
:1009C00021F01001216000E00120A84201DD471B59
:1009D00000E00027A1697A1902EB0900081AA0615A
:1009E0002078C00602D42046FFF75AFD002608E012
:1009F000D4E901211AF806009047206A401C761CB1
:100A000020624E45F4DB2078C0060AD52046FFF769
:100A100047FD06E0D4E9012130209047206A401CC0
:100A20002062381EA7F10107F4DC07E0D4E90121B8
:100A300018F805009047206A401C2062281EA5F186
:100A40000105F3DC2046FFF741FD2078000602D5C2
:100A50000220BDE8F0870120FBE7000001694A1C85
:100A600002610878704700B58FB0CDE901310021EF
:100A7000059105497944CDE9031011466846FFF711
:100A80009BFD0FB000BD0000E5FFFFFF0A6802F804
:100A9000010B0A607047D1E900239A4202D2531C2D
:100AA0000B601070704710B5436913B1AFF300804D
:100AB00001E0FFF71CFD012010BD127800F12401B8
:100AC0000A7000224A700122EDE711684FF0FF32F0
:100AD000E9E73A2800D2303820F02002412A01D339
:100AE000A2F13700884201D34FF0FF307047000079
:100AF000026811441378016018467047D1600549B7
:100B0000794451610449794411620021116111460F
:100B100000F05AB8EDFFFFFFAB000000426842B1A1
:100B2000016811F8013B23B1521EC0E900121846BA
:100B300070470121C160881E704742685AB1C3687E
:100B4000016843B983688B4205D0491E521CC0E935
:100B50000012002070474FF0FF3070474FF0000246
:100B600000B5134694469646203922BFA0E80C50A3
:100B7000A0E80C50B1F12001BFF4F7AF090728BF7E
:100B8000A0E80C5048BF0CC05DF804EB890028BFFA
:100B900040F8042B08BF704748BF20F8022B11F023
:100BA000804F18BF00F8012B7047000000487047C5
:100BB0004C03002010B50446FFF72CFC0068005DD4
:100BC00000F0010010BD00002DE9F34F4FF0000AC6
:100BD0000C4656468DB001200C9001F10C000B9094
:100BE00062690B9801219047051E2DD0252D2CD030
:100BF000216A8847C0B162690B9801219047216A38
:100C000088470028F7D16269411E0B98904700E0A1
:100C1000761CA1690D988847216A88470028F7D17A
:100C2000E1690D988847DBE7A1690D988847A842DC
:100C3000074601D1761CD3E7E1690D9888477F1CF0
:100C400002D1BAF1000F6FD06CE162690B980027F6
:100C50003D46394690472A2804D162690B98012104
:100C600090470125DFF8D08262690B9801219047F7
:100C7000A0F130010A290AD24745E5DC07EB8701DC
:100C800000EB4107303FDFD445F01005ECE7E90603
:100C900001D46FF000476C280AD04C2814D0682883
:100CA00015D06A280DD074281CD07A281AD01DE0DF
:100CB00062690B98012190476C2802D045F0040529
:100CC00014E045F002050DE045F020050AE06269F8
:100CD0000B9801219047682802D045F0080505E0EF
:100CE00045F4006562690B9801219047C4E90157FA
:100CF00065283DD019DC58287AD00CDC452837D03F
:100D000004DC252826D041289ED131E046282FD06A
:100D1000472899D12CE05B2877D0612828D0632818
:100D20007CD0642823D15AE0F7E06F2848D008DC53
:100D300066281DD067281BD0692821D06E2816D1BF
:100D400027E0702845D0732868D0752847D07828C8
:100D50000DD14DE0A1690D988847252805463FF43F
:100D600069AFE1690D9888476D1C3FF46AAFD9E01F
:100D70000D9923466A466FF00100AFF30080C6E08C
:100D800045F0400023464FF000026060A80736D4CB
:100D90003EE0E8077FF447AF2068011D216000684E
:100DA000290501D506701BE7290701D5068017E73D
:100DB000A90703D5F117C0E9006111E706600FE745
:100DC00045F0400023464FF008026060A80716D4A3
:100DD0001EE040F60E0125EA0100606016E045F0D5
:100DE000400023464FF00A026060A80707D40FE0D6
:100DF00045F040006060A80708D5234610220D99F1
:100E00006FF00100AFF3008081E007E0102223467D
:100E10000D996FF00100FFF789FC78E04FF00009B1
:100E200063284F46C8464B46CB4602D05B2807D0C6
:100E300039E02079C00601D40120A060012732E00A
:100E40006269D4F80CB00B98012190475E2807D155
:100E50004FF0010949466269D4F80CB00B989047ED
:100E6000216939B900210A4603AB43F82120491C06
:100E70000829FADBD8B3216949B308F1010862698E
:100E80000B98012190475D28F4D1B9F1000F09D0EA
:100E9000002003A951F82020D24341F82020401C13
:100EA0000828F7DB03AB2069002820794FEA40705F
:100EB0001ED05B462246CDF80080CDE901970D9902
:100EC00000286FF0010020DAAFF300801FE0C117A7
:100ED00003AA00EBD1614B1121F01F0102EB830249
:100EE000411A13680120884003431360C7E719E0E3
:100EF0000D99224600286FF00100009702DAAFF347
:100F0000008004E0AFF3008001E0AFF30080002830
:100F10000ADA401C06D10C9820B14FF0FF300FB018
:100F2000BDE8F08F5046FAE7E90701D10AF1010A5E
:100F3000064400200C9053E6CCCCCC0C7546FFF751
:100F400035FEAE4605006946534620F0070085464B
:100F500018B020B5FFF74EFABDE820404FF000066C
:100F60004FF000074FF000084FF0000B21F0070191
:100F7000AC46ACE8C009ACE8C009ACE8C009ACE8D4
:100F8000C0098D46704710B50446AFF30080204677
:100F9000BDE81040FFF78EB901491820ABBEFEE74F
:100FA000260002007047000070B50446217806480C
:100FB000FFF762FC05460DB9002070BD0248281AF3
:100FC0000249085CF9E70000794F0000914F0000EA
:100FD00070B5044621780648FFF74EFC05460DB96A
:100FE000002070BD0248281A0249085CF9E7000099
:100FF000794F0000C14F000070B5044621780648C3
:10100000FFF73AFC05460DB9002070BD0248281ACA
:101010000249085CF9E70000794F0000A94F000081
:1010200070B5044621780648FFF726FC05460DB941
:10103000002070BD0248281A0249085CF9E7000048
:10104000794F0000CB4F0000002100E0491C814295
:10105000FCD37047084940F601224A6108600748FE
:101060008860886810F0020FFBD1C868104018BF74
:101070004FF0FF307047000000D00F40020042A444
:1010800070B4174B42F2016CC3F814C0002A18BFA9
:10109000144C1DD021F07F051D600BE001F07C0693
:1010A00006F1804606F57D2650F8045BC6F800512F
:1010B000091D121F11F07C0F01D11D6B0DB9002A03
:1010C000ECD11C621D6A15F0010FFBD1002AE1D1A1
:1010D000D86810EA0C0018BF4FF0FF3070BC7047A2
:1010E00000D00F40010042A4D0F8003412F0010FEC
:1010F00014BF0B438B43C0F8003412F0020FD0F83A
:10110000202414BF114322EA0101C0F820147047C3
:101110002DE9F00301264FF0000C0325C2F341171F
:1011200006FA0CF40C4211D0D0F8C48F4FEA4C04EC
:1011300005FA04F928EA0908C0F8C48FD0F8C48F6A
:1011400007FA04F448EA0404C0F8C44F0CF1010C97
:101150000CF0FF0CBCF1080FE2D3D0F800C512F080
:10116000010F14BF4CEA010C2CEA010CC0F800C5B9
:10117000D0F804C512F0020F14BF4CEA010C2CEA9F
:10118000010CC0F804C5D0F808C512F0040F14BF54
:101190004CEA010C2CEA010CC0F808C5D0F818C5BF
:1011A00012F0080F14BF4CEA010C2CEA010CC0F835
:1011B00018C512F0100FD0F83C2514BF0A438A431B
:1011C000C0F83C25D0F80C2513F0010F14BF0A43DA
:1011D0008A43C0F80C25D0F8102513F0020F14BF75
:1011E0000A438A43C0F81025D0F8142513F0040FE1
:1011F00014BF0A438A43C0F81425D0F81C2513F005
:10120000080F14BF0A438A43C0F81C25D0F84425B0
:1012100013F4007F14BF0A438A43C0F84425D0F872
:10122000402513F4407F14BF0A438A43C0F8402589
:10123000D0F82825002B0CBF114322EA0101C0F889
:101240002815BDE8F00370470E4AC0F30741D26E7F
:1012500001238B401A420C4A1ABF02EBC1014968B4
:1012600052F83110020AD1F82C354FF00F0C0CFA5D
:1012700002FC00F00F0023EA0C0390401843C1F871
:101280002C05704700E00F40F85A000050F821008C
:10129000704730B50C4605460022FFF725FF214672
:1012A0002846BDE8304008230122FFF731BF30B5A2
:1012B0000C46054608230122FFF72AFF214628464F
:1012C000BDE830400122FFF70FBF30B50C460546A0
:1012D0000222FFF709FF21462846BDE830400923D6
:1012E0000122FFF715BF30B50C4605460222FFF775
:1012F000FBFE21462846BDE8304008230122FFF7C7
:1013000007BF30B50C4605460222FFF7EDFE214629
:101310002846BDE8304008230122FFF7F9BE30B56A
:101320000C4605460222FFF7DFFE21462846BDE8AF
:10133000304008230122FFF7EBBE00002DE9F04109
:1013400004460E4600BF1D4800F07AF80028FAD186
:1013500000222146194800F0BBF83146174800F03A
:1013600079F80721154800F071F800BF134800F024
:1013700061F80028FAD1114800F073F8C7B24FF4B1
:10138000FA70FFF761FE012221460C4800F0A0F838
:1013900007210A4800F05AF800BF084800F04AF850
:1013A0000028FAD1054800F053F8C5B24FF4FA709E
:1013B000FFF74AFE2846BDE8F08100000000024029
:1013C0002DE9F04104460F46154600BF184800F0CD
:1013D00037F80028FAD100222146154800F078F8A5
:1013E0003946134800F036F80321114800F02EF872
:1013F00000BF0F4800F024F80028FAD10C4800F094
:1014000030F8C6B229460A4800F024F805210848F9
:1014100000F01CF800BF064800F012F80028FAD1CE
:10142000034800F01EF8C6B23046BDE8F081000067
:1014300000000240406810F0400018BF01207047D3
:10144000406810F0010018BF0120704741607047EC
:101450008068704781607047016A41F01001016245
:101460007047406810F0010F05D110F0120F1CBF3B
:1014700000F01C007047002070470000036A43F032
:1014800010030362002A14BF0E4A0F4A02EB8203C4
:1014900001EB830302EB820292005B1EB3FBF2F2CC
:1014A000521EC260D0F8C02F12F0010F08BF704763
:1014B000064A1144521CB1FBF2F1491E41F0800171
:1014C000C1607047801A0600A08601007F4737017F
:1014D00042EA4101016070471649042804BF0868C8
:1014E00040F4803018D0052804BF086840F400306C
:1014F00012D0062812D00F2815D0102838BF7047F8
:10150000103800F01F01012202FA01F142090A48D5
:1015100050F822000160704708607047086840F486
:101520008020086070474FF0E020016941F002011F
:101530000161704724ED00E0445C000010B5FEF747
:10154000C6FE002818BF012010BD00002DE9F041A3
:10155000A0B057A259A15B48FEF774FF10270020E6
:101560005949087037E058480078082805DB012001
:10157000564908700020544908705249524A12785E
:101580008818FFF711FD8046424605212220FFF70B
:1015900017FF4F4908704D48027806212220FFF7B7
:1015A0000FFF4B49087049480078C043C2B201217F
:1015B0001820FFF705FF464908704648FFF744FD2D
:1015C00041480078401C4049087040480078400677
:1015D000000E3E490870381EA7F10107C3D1FF2253
:1015E00001211820FFF7ECFE394908703A4B3B4ABD
:1015F0003B493C4800F01AF910B103F03FFC0EE003
:1016000039483549086040F2E770364908600620DD
:10161000334908700B203149087003F02FFC334820
:101620003349086003F074FB40F6B8303149086074
:101630000846006830490860002030490870304989
:1016400008603049087030490870FF202F49087041
:101650002F4908700024002520E00024002608E01F
:101660002C4800EB8510825D2046641C0DF800209C
:10167000761C402EF4DB0D222146641C0DF801205F
:101680000A222046641C0DF800200021601C04463C
:101690000DF80010684600F0F3FE6D1C102DDCDB29
:1016A00000222046641C0DF8002020B0BDE8F08127
:1016B000313039313030323000000000253038739D
:1016C0000000000049000020120000201E00002041
:1016D00011000020804F12008C00002069000020C3
:1016E00068000020640000200C092C0040703100CC
:1016F000940000209000002098000020820000202C
:101700009C0000206A000020F50000201C00002042
:101710001D000020D54F0000D0F8C82F22F007028E
:1017200022F480721143C0F8C81F70470844016852
:101730006FF352011143016012F0020F14BFB02188
:101740008C21016214BF4FF4306140F60C014162FC
:101750007047425842F00102425070470844016805
:10176000006911F0020F14BF4000401C704708448C
:10177000016811F0020F14BF5108511E016170473A
:10178000002A826814BF114322EA01018160704778
:1017900021F03F031844036813F0020F18BF5208EA
:1017A00003699A1A11F0010F14BFC2618261704778
:1017B00010B5174800F0AEFA00BF154800F0BEFAA9
:1017C0000028FAD0134800F0A5FA00BF114800F035
:1017D000B5FA0028FAD020210F48FFF792FD0F48F4
:1017E000FFF732FD0E48006880090E49086040F29C
:1017F00005110D48FFF790FF0222D1010A48FFF7BB
:1018000095FF4FF480710848FFF7A3FF10BD00005B
:10181000090800F0004000F000100640061409001E
:1018200018000020B0000020008002407CB5044673
:101830004FF4003528680090686801900098401CBB
:1018400010B10198401C08B900207CBD4FF6FF760E
:10185000009806EA104020600098000A087000987E
:101860001070019818600120EFE7000010B51948CA
:1018700000F050FA00BF174800F060FA0028FAD0D4
:101880001448C01C00F046FA00BF1248C01C00F00B
:1018900055FA0028F9D00F48C01D00F03BFA00BFF0
:1018A0000C48C01D00F04AFA0028F9D001210A486E
:1018B000FFF7FDFC03210948FFF7F9FC0321084865
:1018C000FFF7E7FC0A23012203210548FFF720FC6C
:1018D00010BD0000050800F0005002400040064026
:1018E00000D0034010B51E4800F014FA1D4800F067
:1018F00011FA1D48FFF7A8FC1C48FFF7A5FC0421BE
:101900001B48FFF7F0FC08211948FFF7DEFC012215
:10191000184801681848FFF7B1FD1748FFF79CFD0C
:10192000FF220C212220FFF74BFD044600220D214F
:101930002220FFF745FD044600220E212220FFF75A
:101940003FFD0446002203211820FFF739FD04461D
:10195000FF2201211820FFF733FD044610BD0000CF
:10196000002000F0010800F002080100020C010054
:1019700000500040180000200000024010B51C4834
:1019800000F0C8F91B4800F0C5F91A48401F00F0E4
:10199000C1F900BF1748401F00F0D0F90028F9D066
:1019A0000120FFF751FC40F20140FFF74DFC0321FD
:1019B0004FF04020FFF7B3FC60234FF4E1320E48B4
:1019C00001680E4800F013FD202200210B4800F0B2
:1019D0004FFD5021094800F04EFD1520FFF77CFD1A
:1019E000064800F03BFD06A000F04AFD10BD0000D7
:1019F000001800F0050800F01800002000C00040AA
:101A00000D0A57656C636F6D6520746F207A797964
:101A1000277320636F757273652070726F6A6563D8
:101A200074210D0A000000002DE9F003AF4D0246BD
:101A30002868AF4B1840A0F18053B3F5A02359D0CC
:101A400002F03809DFF8AC82C2F38414B9F1100F48
:101A500025D0B9F1300F04BF47F230504FF40013D6
:101A60000DD04FF03800904304BF4FF40040C30145
:101A700005D012F0380F1CBF0020034613D09E4F34
:101A800012F4605F4FF0000618BF00222CD057F808
:101A9000324044457DD307EBC2025268E1E00023A7
:101AA00040461524EBE7A4F10900122822D29348FE
:101AB000D5F87CC04FF04C7350F824002CF01C0C6F
:101AC000072CA8BF4CF0100CC5F87CC02E6D4FF44D
:101AD000002C16F4807FD2D1BCF1010C0AD02E6DFF
:101AE00016F4807FF8D0CAE712F0380F18BFB9F1AA
:101AF000100F04D0BDE8F0034FF000007047C2F3B0
:101B00000268DFF8FCC14FF0000257F83290E1455F
:101B100003D307EBC202526803E0521C062AF4D337
:101B20003246C5F8C020D5F8B020DFF8D8C102EAA7
:101B30000C0242F00042C5F8B020DFF8CCC1A4F19D
:101B400009024C1E5CF828C0A444BCFBF1FCD5F88B
:101B5000B0101943C5F8B01008EBC80101EB4104FF
:101B60006A4902EB420201EBC40101EB82046468A2
:101B7000C5F86441D5F864416FF0FF0808EB0C2C00
:101B800044EA0C0CC5F864C151F82210D5F8602164
:101B900000E061E002F400021143C5F86011D5F8DD
:101BA0006011D5F86021C1F38921C2F30904D5F889
:101BB0006421C2F3042202F1010CD5F8642102F081
:101BC0001F02521CB0FBF2F04A09C2F10008444364
:101BD000424301EB481104EB5212484302EB9020C0
:101BE000B0FBFCF041080846002257F832C084459B
:101BF00003D307EBC200466802E0521C062AF4D366
:101C0000C5F8C060D5F8600110F4000F1DBFD5F80D
:101C1000B00040F08040C5F8B000D5F8600104BFC6
:101C200040F40000C5F860014FF40040D5F8682189
:101C300012F0010F02D1401E0028F7DC002808BF77
:101C4000002148D0D5F8B000184340F0010040F022
:101C50001040C5F8B0003EE0521C062AFFF417AF52
:101C60003246C5F8C020D5F8602122F40002C5F83C
:101C70006021D5F8B020DFF898C002EA0C0242F0EB
:101C80000042C5F8B020002908BF4FF0000C0AD070
:101C9000B0FBF1FCBCF1000F18BFACF1010C0CF172
:101CA0000101B0FBF1F10846002257F832408442AE
:101CB00003D307EBC200466802E0521C062AF4D3A5
:101CC000C5F8C060D5F8B00043EA8C22104340F05C
:101CD0000040C5F8B000D5F8B00020F47000C5F899
:101CE000B000BDE8F00308467047000000E00F4078
:101CF0000000FF700024F400B85E00009C5C00004F
:101D000040787D0100FC0FE0945C0000085D00005D
:101D1000FF0300EFC0F307230749C0B2194401F0E5
:101D20007043C1F3130143EA411141EA800040F0DE
:101D3000007001220260704700E60F40C0F30722E6
:101D40000849C0B2114401F07042C1F3130142EAE4
:101D5000411141EA800040F000700068002818BF7F
:101D60000120704700EA0F404FF0E020016941F088
:101D70000501016170474FF0E020016941F0020167
:101D8000016170474FF0E021401E4861704700003C
:101D900000B52D48008828B12B480088401E2A49EC
:101DA000088007E00A202849088001202749087098
:101DB00002F0F6FC2648008828B125480088401E1D
:101DC0002349088005E01420214908800120214989
:101DD00008702148008828B11F480088401E1E490D
:101DE000088006E04FF47A701B49088001201B49E7
:101DF00008701B48008828B119480088401E1849FF
:101E0000088009E0642016490880012015490870FF
:101E100002F0B6FE02F0AAFD1348008828B112486D
:101E20000088401E104908800CE041F288300E49BD
:101E3000088001200D4908700D48007880F00100ED
:101E40000B49087000BD0000080000200E000020B3
:101E50000A0000200F0000200400002007000020DE
:101E600002000020060000200C00002010000020CE
:101E7000840000200448006840F4700002490860B3
:101E8000024803490860704788ED00E00024F40030
:101E9000F80000202DE9F041F948007808B1BDE8CC
:101EA000F0810020F7490860F7490860F7490860A9
:101EB000F7490870F7490860002403E00020F6495C
:101EC0000855641C032CF9DB4FF000082121F3486E
:101ED000FEF700FD2121F248FEF7FCFC0024F14E44
:101EE00034E0F14800F070FA3070377807B932E02A
:101EF000202F0DD1B8F1000F23D1E2480068401C1B
:101F0000E04908600020E04908604FF0010818E04F
:101F10004FF00008DB480068032812DADA4800684E
:101F20000A280EDAD748006800EB400101EBC00038
:101F3000DA490144D44802680068401CD24B18605A
:101F40008F54761C7820FFF77FF800BFD64800F04A
:101F500049FA0028C5D100BF002415E0002510E093
:101F600004EB440101EBC401CC4A1144485DFEF787
:101F700059FA04EB440101EBC401C94A1144485524
:101F80006D1C0A2DECDB641CBE480068401C8442BA
:101F9000E4DBC6A1C248FEF7BFFC58B90120BC492A
:101FA00008700020B9490860BA4908600120C0499A
:101FB000087074E7BFA1BA48FEF7AEFC08BB012069
:101FC000B3490870B1490860B2490860AD4800687B
:101FD00001280ADBB9A1B2480B30FEF79DFC28B9F5
:101FE0000120B8490870AC494870CAE1AFA1AC48BB
:101FF0000B30FEF791FC0028F7D10120AC490870A6
:102000004DE7B1A1A648FEF787FC00287BD101204F
:102010009F49087002209D4908609E490860ABA155
:102020009F480B30FEF778FC98B901209A49487018
:10203000022001F0EDF80028D7D00220A149087055
:1020400001209549887095491631A248FEF71EFC7B
:1020500097E1A1A192480B30FEF75EFC98B90120F0
:102060008D494870022000F09FFF0028BDD003205A
:10207000944908700120884988708849163195482C
:10208000FEF704FC7DE196A185480B30FEF744FC89
:1020900098B9012080494870022001F0B9F8002861
:1020A000A3D004208749087001207B4988707B49B0
:1020B00016318848FEF7EAFB63E18BA178480B30C4
:1020C000FEF72AFCA0B9012073494870022001F0F4
:1020D0009FF8002889D005207A49087001206E49B0
:1020E00088706E4916317B48FEF7D0FB49E10AE063
:1020F0006EA16B480B30FEF70FFC0028A8D1012021
:102100006B490870CBE67AA16548FEF705FC00280C
:1021100057D101205E4908705C49086003205D4981
:10212000086058480068012892D172A15C480B30C1
:10213000FEF7F2FB30B906206249087001205649CB
:1021400048701EE161A156480B30FEF7E5FB30B93F
:1021500007205C49087001204F49487011E15EA1D9
:102160004F480B30FEF7D8FB30B9082055490870AE
:1021700001204949487004E159A149480B30FEF754
:10218000CBFB30B909204F49087001204249487003
:10219000F7E055A142480B30FEF7BEFB30B90A20EC
:1021A0004849087001203C494870EAE03FA13C489A
:1021B0000B30FEF7B1FB002898D101203C49087094
:1021C0006DE64EA13648FEF7A7FB002856D1012048
:1021D0002F4908702D49086004202E4908602948BD
:1021E00000680128ADD143A12D480B30FEF794FBC8
:1021F00030B90B2033490870012027494870C0E0EE
:1022000032A127480B30FEF787FB30B90C202D494F
:102210000870012020494870B3E02FA120480B30FE
:10222000FEF77AFB30B90D202649087001201A49C3
:102230004870A6E02AA11A480B30FEF76DFB30B9B2
:102240000E202049087001201349487099E026A10A
:1022500013480B30FEF760FB30B90F2019490870A6
:1022600001200D4948708CE010A10D480B30FEF79D
:1022700053FB20B901200E49087010E640E080E0D1
:10228000010000206C00002070000020740000207D
:10229000780000207C00002079000020FC02002053
:1022A0001D030020FC00002000C000403F00000093
:1022B00000000020494E495400000000434C4F43A9
:1022C0004B000000F40000205345540054494D4594
:1022D000000000003E03002044415445000000007F
:1022E000414C41524D000000535457415443480063
:1022F0004745540052554E54494D450052554E00E5
:1023000024A12648FEF708FBD8B90120244908700B
:1023100000202449086005202349086023480068FC
:1023200001280ADBAFF27C011C480B30FEF7F4FAFF
:1023300038BB01201E490870B1E510201D49087006
:102340001FE01DA11548FEF7E7FAD0B90120144996
:1023500008700020134908600620134908601348DC
:10236000006801280ADBAFF2BC010C480B30FEF715
:10237000D3FA30B901200E49087090E511200D49BB
:102380000870074800780E49087001200D49087050
:1023900000BF84E552455645525345001D030020B9
:1023A00078000020740000207C0000206C000020D9
:1023B00000000020F40000205341564500000000BA
:1023C0007900002001000020816911F0100F0CBF7E
:1023D00000684FF0FF307047826912F0200FFBD188
:1023E000016070478069012121EA10107047D0F820
:1023F00018C01CF0080FFAD1D0F82CC02CF0100C2B
:10240000C0F82CC0D0F830C02CF0010C2CF4407C6B
:10241000C0F830C0D0F830C0B1EB021F34BF4CF070
:10242000200C2CF0200CC0F830C038BF5208C90076
:10243000B1FBF2F1491C49088A09426201F03F01EF
:102440008162C36200218161C16A41F01001C162F1
:10245000016B40F20132114301637047C16A41F0E0
:102460001001C162016B40F20132114301637047F8
:10247000114341637047826B1143816370470000D1
:1024800010B5044604E014F8011B0348FFF7A4FF4D
:1024900020780028F7D110BD00C000402DE9FC4194
:1024A00004460D4616461F464FF40038200440EA05
:1024B00005203043009001974046FEF7CBFD0822EF
:1024C00041466846FEF7DCFDBDE8FC8130380A284D
:1024D00001D2012070470020704730B513781C2BC3
:1024E00003DA13785B1C137064E013781C2B23D180
:1024F0000B78022B1CD1037803F0030333B9642457
:102500000368B3FBF4F504FB15333BB94FF4C8740F
:102510000368B3FBF4F504FB15331BB913785B1C9C
:10252000137047E0012313700B785B1C0B7041E0C4
:1025300013785B1C13703DE013781D2B0CD10B78C6
:10254000022B05D1012313700B785B1C0B7031E05B
:1025500013785B1C13702DE013781E2B11D1042906
:1025600005D0062903D0092901D00B2905D1012363
:1025700013700B785B1C0B701CE013785B1C1370E2
:1025800018E013781F2B15D10B780C2B0DD10123DC
:1025900013700B7003685B1C036042F210740368D5
:1025A000A34207D10123036004E0012313700B78D9
:1025B0005B1C0B7030BD30B50B780C2B0CD101239C
:1025C0000B7003685B1C036042F210740368A34243
:1025D00005D10123036002E00B785B1C0B701378BC
:1025E0001C2B32DD0B78022B1ED1037803F0030382
:1025F00033B964240368B3FBF4F504FB15333BB92A
:102600004FF4C8740368B3FBF4F504FB15332BB91E
:1026100013781D2B19DD1D23137016E013781C2B66
:1026200013DD1C23137010E00B78042B08D00B78FB
:10263000062B05D00B78092B02D00B780B2B04D17D
:1026400013781E2B01DD1E23137030BD10B5034619
:102650001BB142F20F70834201D9002010BD012945
:1026600001DB0C2901DD0020F8E7012A01DB1F2A2C
:1026700001DD0020F2E7042905D0062903D009294D
:1026800001D00B2903D11E2A01DD0020E6E7022933
:1026900017D11D2A01DD0020E0E71D2A11D103F02A
:1026A000030060B96420B3FBF0F400FB143040B9C0
:1026B0004FF4C870B3FBF0F400FB143008B10020F5
:1026C000CCE70120CAE7000010B565480078002873
:1026D00061D16448007820B163480078634908708C
:1026E00005E0614862490978405C604908706148CA
:1026F0000088022839DD5F480088132835DA5E48F3
:102700000078012807D05C480078032803D05A4895
:10271000007805280ED15949574A12788818FEF7D3
:102720006BFC0446224605212220FEF749FE54494F
:1027300008700DE05149504A12788818FEF734FCB1
:102740000446224605212220FEF73AFE4C49087035
:102750004C4800784549097800EA01020621222008
:10276000FEF72EFE4649087079E04449424A127845
:102770008818FEF719FC0446224605212220FEF7A0
:102780001FFE3F490870002206212220FEF718FE96
:102790003B49087063E03348007820B13A4800783C
:1027A0003249087005E0384831490978405C2F49C2
:1027B00008703048008802283BDD2E480088132826
:1027C00037DA2D480078012807D02B4800780328F5
:1027D00003D02948007805280FD12849C91D264A69
:1027E0001278881AFEF71CFC044622460521222096
:1027F000FEF7E6FD224908700EE02049C91D1E4A79
:102800001278881AFEF7E4FB0446224605212220AE
:10281000FEF7D6FD1A4908701A480078134909785E
:1028200000EA010206212220FEF7CAFD14490870C1
:1028300015E01249C91D104A1278881AFEF7C8FB24
:102840000446224605212220FEF7BAFD0C490870F5
:10285000002206212220FEF7B3FD0949087010BDB1
:102860006A000020840000206F4F0000200000203C
:102870001F0000200A00002012000020310000206C
:10288000110000201E000020744F000010B56148A8
:10289000007800285DD16048007820B15F4800785A
:1028A0005F49087005E05D485E490978405C5C4915
:1028B00008705D480088022835DD5B4800881328D1
:1028C00031DA5A480078032803D0584800780528A0
:1028D0000ED15749554A12788818FEF78DFB0446E9
:1028E000224605212220FEF76BFD524908700DE0BB
:1028F0004F494E4A12788818FEF756FB0446224686
:1029000005212220FEF75CFD4A4908704A480078FC
:102910004349097800EA010206212220FEF750FD12
:102920004449087075E04249404A12788818FEF719
:102930003BFB0446224605212220FEF741FD3D498E
:102940000870002206212220FEF73AFD394908705E
:102950005FE03148007820B138480078304908708D
:1029600005E036482F490978405C2D4908702E480B
:102970000088022837DD2C480088132833DA2B48DA
:102980000078012803D02948007803280FD128496E
:10299000C91D264A1278881AFEF742FB04462246D1
:1029A00005212220FEF70CFD224908700EE0204987
:1029B000C91D1E4A1278881AFEF70AFB04462246F1
:1029C00005212220FEF7FCFC1A4908701A480078FD
:1029D0001349097800EA010206212220FEF7F0FCE3
:1029E0001449087015E01249C91D104A1278881A56
:1029F000FEF7EEFA0446224605212220FEF7E0FC0F
:102A00000C490870002206212220FEF7D9FC094952
:102A1000087010BD6A000020840000206F4F000085
:102A2000200000201F0000200A00002012000020CB
:102A300029000020110000201E000020744F00001B
:102A400010B565480078002861D16448007820B14D
:102A5000634800786349087005E061486249097875
:102A6000405C6049087061480088022839DD5F4891
:102A70000088132835DA5E480078012807D05C48C2
:102A80000078032803D05A48007805280ED1594908
:102A9000574A12788818FEF7AFFA044622460521F5
:102AA0002220FEF78DFC544908700DE05149504A30
:102AB00012788818FEF778FA04462246052122206B
:102AC000FEF77EFC4C4908704C480078454909786F
:102AD00000EA010206212220FEF772FC4649087036
:102AE00079E04449424A12788818FEF75DFA0446B4
:102AF000224605212220FEF763FC3F490870002290
:102B000006212220FEF75CFC3B49087063E0334855
:102B1000007820B13A4800783249087005E038481A
:102B200031490978405C2F490870304800880228F4
:102B30003BDD2E480088132837DA2D48007801281D
:102B400007D02B480078032803D0294800780528AF
:102B50000FD12849C91D264A1278881AFEF760FA53
:102B60000446224605212220FEF72AFC224908704D
:102B70000EE02049C91D1E4A1278881AFEF728FA6D
:102B80000446224605212220FEF71AFC1A49087045
:102B90001A4800781349097800EA01020621222028
:102BA000FEF70EFC1449087015E01249C91D104AC1
:102BB0001278881AFEF70CFA0446224605212220D4
:102BC000FEF7FEFB0C490870002206212220FEF7CA
:102BD000F7FB0949087010BD6A000020840000203E
:102BE0006F4F0000200000201F0000200A0000207E
:102BF0001200002041000020110000201E000020D3
:102C0000744F000010B565480078002861D1644811
:102C1000007820B1634800786349087005E0614896
:102C200062490978405C6049087061480088022860
:102C300039DD5F480088132835DA5E4800780128BE
:102C400007D05C480078032803D05A48007805284C
:102C50000ED15949574A12788818FEF7CDF9044623
:102C6000224605212220FEF7ABFB544908700DE0F7
:102C70005149504A12788818FEF796F904462246C0
:102C800005212220FEF79CFB4C4908704C48007837
:102C90004549097800EA010206212220FEF790FB4F
:102CA0004649087079E04449424A12788818FEF78C
:102CB0007BF90446224605212220FEF781FB3F498D
:102CC0000870002206212220FEF77AFB3B4908709B
:102CD00063E03348007820B13A4800783249087000
:102CE00005E0384831490978405C2F490870304880
:102CF000008802283BDD2E480088132837DA2D484B
:102D00000078012807D02B480078032803D02948F1
:102D1000007805280FD12849C91D264A1278881A3B
:102D2000FEF77EF90446224605212220FEF748FBE5
:102D3000224908700EE02049C91D1E4A1278881ADF
:102D4000FEF746F90446224605212220FEF738FB0D
:102D50001A4908701A4800781349097800EA0102F4
:102D600006212220FEF72CFB1449087015E01249B9
:102D7000C91D104A1278881AFEF72AF9044622461D
:102D800005212220FEF71CFB0C49087000220621B9
:102D90002220FEF715FB0949087010BD6A000020CB
:102DA000840000206F4F0000200000201F00002042
:102DB0000A0000201200002039000020110000202D
:102DC0001E000020744F000010B5654800780028F0
:102DD00061D16448007820B1634800786349087085
:102DE00005E0614862490978405C604908706148C3
:102DF0000088022839DD5F480088132835DA5E48EC
:102E00000078012807D05C480078032803D05A488E
:102E1000007805280ED15949574A12788818FEF7CC
:102E2000EBF80446224605212220FEF7C9FA544950
:102E300008700DE05149504A12788818FEF7B4F82E
:102E40000446224605212220FEF7BAFA4C490870B2
:102E50004C4800784549097800EA01020621222001
:102E6000FEF7AEFA4649087079E04449424A1278C2
:102E70008818FEF799F80446224605212220FEF71D
:102E80009FFA3F490870002206212220FEF798FA97
:102E90003B49087063E03348007820B13A48007835
:102EA0003249087005E0384831490978405C2F49BB
:102EB00008703048008802283BDD2E48008813281F
:102EC00037DA2D480078012807D02B4800780328EE
:102ED00003D02948007805280FD12849C91D264A62
:102EE0001278881AFEF79CF8044622460521222013
:102EF000FEF766FA224908700EE02049C91D1E4AF5
:102F00001278881AFEF764F804462246052122202A
:102F1000FEF756FA1A4908701A48007813490978DA
:102F200000EA010206212220FEF74AFA144908703D
:102F300015E01249C91D104A1278881AFEF748F8A0
:102F40000446224605212220FEF73AFA0C49087071
:102F5000002206212220FEF733FA0949087010BD2D
:102F60006A000020840000206F4F00002000002035
:102F70001F0000200A000020120000202100002075
:102F8000110000201E000020744F0000014601EBDC
:102F9000410000EBC100034A105C08B901207047F2
:102FA0000020FCE71D0300202DE9F04104462046E7
:102FB000FFF7ECFF10B10020BDE8F081FDF72AFA21
:102FC000006804EB440101EBC401904A515C405C91
:102FD000202801D00020EFE7FDF71CFA006804EB81
:102FE000440101EBC401894A11444978405C20281E
:102FF00001D00020E0E7FDF70DFA006804EB440182
:1030000001EBC401814A11448978405C202801D039
:103010000020D1E7FDF7FEF9006804EB440101EB65
:10302000C4017A4A1144C978405C202801D00020AC
:10303000C2E704EB440000EBC40074490844007983
:103040002E2801D00020B7E7FDF7E4F9006804EB73
:10305000440101EBC4016D4A11444979405C2028C8
:1030600008D104EB440000EBC40011460844407949
:10307000312801DD00209FE7FDF7CCF9006804EB63
:10308000440101EBC401614A11448979405C202864
:1030900010D104EB440000EBC40011460844407911
:1030A000312809D104EB440000EBC40008448079C6
:1030B000322801DD00207FE704EB440000EBC40070
:1030C00052490844C0792E2801D0002074E7FDF74A
:1030D000A1F9006804EB440101EBC4014B4A11441F
:1030E000097A405C202808D104EB440000EBC400BE
:1030F00011460844007A332801DD00205CE7FDF723
:1031000089F9006804EB440101EBC4013F4A114412
:10311000497A405C202810D104EB440000EBC40045
:1031200011460844007A332809D104EB440000EB2F
:10313000C4000844407A312801DD00203CE704EB5C
:10314000440000EBC40031490844807A08B10020F3
:1031500032E704EB440000EBC4002C49085C303833
:103160004FF47A7110FB01F104EB440000EBC40052
:10317000264A10444078303800EBC00202EB0010C1
:1031800001EB800104EB440000EBC4001F4A104433
:103190008078303800EB800001EB400004EB440104
:1031A00001EBC4011144C9780844A0F1300504EBD7
:1031B000440000EBC40011460844817904EB44004C
:1031C00000EBC40010444079303800EB800001EB84
:1031D0004000A0F1300604EB440000EBC4001146AF
:1031E0000844417A04EB440000EBC4001044007A28
:1031F000303800EB800001EB4000A0F13007FAB25C
:10320000F1B22846FFF722FAD6E600001D0300209F
:1032100010B504462046FFF7B9FE08B1002010BDE6
:10322000FDF7F8F8006804EB440101EBC4014F4AD4
:10323000515C405C202807D104EB440000EBC40043
:103240001146085C322801DD0020E8E7FDF7E2F8CE
:10325000006804EB440101EBC401444A114449787D
:10326000405C20280FD104EB440000EBC400114661
:10327000085C322809D104EB440000EBC400084488
:103280004078332801DD0020C9E704EB440000EB5F
:10329000C4003649084480783A2801D00020BEE7AF
:1032A000FDF7B8F8006804EB440101EBC4012F4AB4
:1032B0001144C978405C202808D104EB440000EB9D
:1032C000C40011460844C078352801DD0020A6E777
:1032D000FDF7A0F8006804EB440101EBC401234AA8
:1032E00011440979405C202801D0002097E704EBC5
:1032F000440000EBC4001D49084440793A2801D03D
:1033000000208CE7FDF786F8006804EB440101EB30
:10331000C401164A11448979405C202808D104EB85
:10332000440000EBC400114608448079352801DDD3
:10333000002074E7FDF76EF8006804EB440101EB30
:10334000C4010A4A1144C979405C202801D00020F8
:1033500065E704EB440000EBC40004490844007A2C
:1033600008B100205BE7012059E700001D030020A1
:1033700086B0F649F648FEF757FBF649086008465E
:10338000006842F21071B0FBF1F42046FEF7FAFC3F
:10339000FEF7EAFCFEF7EFFCFEF7D0F8FEF766FA60
:1033A000FEF7A0FAFEF7EAFAFEF702FAFEF7CEF809
:1033B000FDE3E9480078B0B10020E7490870E7482C
:1033C0000078401CE5490870E54800784006000E8A
:1033D000E3490870E1480078082804DB0120087000
:1033E0000020DE490870DF48007812287DD2DFE82F
:1033F00000F0090A3489A0FCFBFAF9F8F7F6F5F4B5
:10340000F3F2F1F062E3D848D849086040F2E7707F
:10341000D74908600620D74908700B20D6490870A4
:1034200001F02CFDD548D649086001F071FC40F64A
:10343000B830D449086008460068D34908600020C5
:10344000D2490870D2490860D2490870D2A0FFF76B
:1034500017F80020C349087038E30020C34908600A
:10346000D24840783038D1490978303901EB8101B0
:1034700000EB41004FF4616110FB01F000EBC00173
:1034800001EB0010B949096801EB8000B7490860F9
:10349000C64800793038C549C978303901EB810117
:1034A00000EB4100C0EB0010800000EBC00101EB1D
:1034B0000010AE49096801EB8000AC490860BB48C8
:1034C000C0793038B9498979303901EB810100EB95
:1034D000410000EBC00101EB0010A449096801EBB9
:1034E0008000A2490860B14B00E0E9E2B0A280216F
:1034F000B448FCF7BBFFB348FEF7C2FF0020994970
:103500000870E3E29C489B4B994AAFA10090A74802
:10351000FDF7EEF801F0B2FCA44BAFA28021A94860
:10352000FCF7A4FFA748FEF7ABFF00208D49087009
:10353000CCE20020924908609C48407830389B4992
:103540000978303901EB810100EB41004FF46161F2
:1035500010FB01F000EBC00101EB00108849096885
:1035600001EB8000864908609048007930388F4927
:10357000C978303901EB810100EB4100C0EB00104C
:10358000800000EBC00101EB00107D49096801EBF0
:1035900080007B4908608548C07930388349897943
:1035A000303901EB810100EB410000EBC00101EB80
:1035B00000107349096801EB80007149086001F04F
:1035C000A7FB7A4B89A280217E48FCF74FFF7D48FC
:1035D0000CE035E227E20DE2EFE1DDE1CBE1BAE11B
:1035E00089E158E146E18EE05DE005E0FEF748FF45
:1035F00000205C49087069E20020624908606B485D
:103600004078303869490978303901EB810100EBA5
:1036100041004FF4616110FB01F000EBC00101EBD0
:1036200000105849096801EB8000564908605F485E
:10363000007930385D49C978303901EB810100EB00
:103640004100C0EB0010800000EBC00101EB001056
:103650004C49096801EB80004A4908605348C07929
:10366000303852498979303901EB810100EB410052
:1036700000EBC00101EB00104249096801EB80003A
:1036800040490860494B60A280214E48FCF7EEFE9D
:103690003C4800683C4908604A48FEF7F1FE0020BB
:1036A0003049087012E23A4800685F49B0FBF1FA0D
:1036B0003748006841F27071B0FBF1F03C21B0FB7B
:1036C000F1F201FB1204324800686421B0FBF1F012
:1036D0003C21B0FBF1F201FB12052D48006864218A
:1036E000B0FBF1F201FB1206534650A2802135488F
:1036F0008DE87000FCF7BAFE3248FEF7C1FE0020EC
:1037000018490870E2E1194800684749B0FBF1FA2E
:103710001648006841F27071B0FBF1F03C21B0FB3B
:10372000F1F201FB1204114800686421B0FBF1F0D2
:103730003C21B0FBF1F201FB12050C48006864214A
:10374000B0FBF1F201FB1206534685E0002D31017A
:10375000500500F1180000200F000020120000208A
:103760001E000020F40000200C092C008C0000201A
:1037700064000020680000206900002040703100D3
:10378000940000209000002098000020820000207B
:103790009C0000206A000020496E697469616C69B0
:1037A0007A6520636C6F636B210D0A003E03002075
:1037B0005365742074696D6520746F202573202112
:1037C0000D0A0000FC010020256868752E25686838
:1037D000752E2568687500005365742064617465F2
:1037E00020746F20257320210D0A0000536574207A
:1037F000616C61726D2074696D6520746F20257332
:1038000020210D0A000000005365742073746F704E
:1038100077617463682074696D6520746F20257307
:1038200020210D0A00000000407E050043757272E1
:10383000656E742072756E74696D652069732025DC
:103840003032643A253032643A253032643A2530D9
:1038500032642E0D0A000000EDA28021F6488DE8AA
:103860007000FCF703FEF448FEF70AFE0020F3495F
:1038700008702BE1F248811E831FF2A2CDE90010EF
:103880008021ED48FCF7F2FDEB48FEF7F9FD002042
:10389000EA4908701AE1F4480068F449B0FBF1FA0B
:1038A000F148006841F27071B0FBF1F03C21B0FBCF
:1038B000F1F201FB1204EC4800686421B0FBF1F066
:1038C0003C21B0FBF1F201FB1205E74800686421DE
:1038D000B0FBF1F201FB12065346E5A28021D64867
:1038E0008DE87000FCF7C2FDD348FEF7C9FD00204B
:1038F000D2490870EAE0EA480068DC49B0FBF1FA16
:10390000E748006841F27071B0FBF1F03C21B0FB78
:10391000F1F201FB1204E24800686421B0FBF1F00F
:103920003C21B0FBF1F201FB1205DD480068642187
:10393000B0FBF1F201FB12065346DAA28021BE4829
:103940008DE87000FCF792FDBB48FEF799FD002062
:10395000BA490870BAE00020DF490870DF490870F2
:10396000DF490870DF490870DFA0FEF789FD0020FD
:10397000B2490870AAE00020D7490870D7490870FA
:10398000D74908700120D7490870DCA0FEF778FD00
:103990000020AA49087099E00020CF490870CF495B
:1039A0000870CF4908700220CE490870D7A0FEF7F2
:1039B00067FD0020A149087088E00020C649087012
:1039C000C6490870C64908700320C6490870D3A0CC
:1039D000FEF756FD0020D6490860D648096830F841
:1039E0001100642190FBF1F0D34908600020934955
:1039F00008706BE00020B8490870B84908700120D1
:103A0000B7490870A648006818B9CC480068A449AE
:103A100008600420B3490870C9A0FEF731FD0020FA
:103A20008649087052E0CB48007880F00100C9490F
:103A30000870C9A0FEF724FD00208049087045E009
:103A4000CB480368CB480278CB480178CB48006864
:103A5000FEF724FDC64800688449B0FBF1FAC4486B
:103A6000006841F27071B0FBF1F03C21B0FBF1F263
:103A700001FB1204BE4800686421B0FBF1F03C2158
:103A8000B0FBF1F201FB1205B94800686421B0FBFC
:103A9000F1F201FB12066A48811E821F53468DE82F
:103AA0007000CDE903210590B54A80216248FCF7FA
:103AB000DDFC6148FEF7E4FC00206049087005E089
:103AC0000020884908705D49087000BF00BFAD48FC
:103AD000007868B1AC49096801EBC10202EB011141
:103AE000AA4A02EBC100FEF7CBFC0020A5490870F2
:103AF000AAE10020A64908708346A6480078C0B90C
:103B00000020FFF743FAA0B9A34BA4A280214A48A2
:103B1000FCF7ACFC4848FEF7B3FC9B49096801EB95
:103B2000C10202EB0111994A02EBC100FEF7A8FCA9
:103B30008FE1A0480068A0490968884214DD9F4BC6
:103B40009FA280213C48FCF791FC3B48FEF798FC83
:103B50008D49096801EBC10202EB01118B4A02EBAE
:103B6000C100FEF78DFC74E14FF0010827E09D488D
:103B700010F8080008BB914908EB480000EBC800AA
:103B8000854A1044434698A2CDE9000180212A4885
:103B9000FCF76CFC2848FEF773FC7B49096801EBD5
:103BA000C10202EB0111794A02EBC10000E03AE3E5
:103BB000FEF766FC4FF0010B06E008F101087D48B6
:103BC0000068401C8045D2DB00BFBBF1000F00D075
:103BD0003FE14FF001082FE176480068404516DAD2
:103BE000764843468AA2802100901348FCF73EFCA9
:103BF0001148FEF745FC6449096801EBC10202EB7C
:103C00000111624A02EBC100FEF73AFC1AE111E130
:103C100043757272656E742074696D6520697320D6
:103C2000253032643A253032643A253032643A2500
:103C30003032642E0D0A0000FC010020F400002048
:103C40002F00002043757272656E74206461746584
:103C500020697320252E34732D252E32732D252EA9
:103C600032732E0D0A00000094000020407E0500F3
:103C700043757272656E7420616C61726D20746937
:103C80006D6520697320253032643A253032643AFC
:103C9000253032643A253032642E0D0A00000000CF
:103CA0009000002043757272656E742073746F709B
:103CB00077617463682074696D65206973202530AD
:103CC00032643A253032643A253032643A25303253
:103CD000642E0D0A00000000830000201F00002059
:103CE00082000020F5000020446973706C61792027
:103CF00072756E74696D65210D0A000044697370F8
:103D00006C61792074696D65210D0A0044697370D6
:103D10006C61792064617465210D0A0052756E6EC4
:103D2000696E6720616C61726D210D0A00000000F0
:103D3000EC000020D0000020F000002098000020BF
:103D400052756E2073746F707761746368210D0A09
:103D5000000000006A0000205265766572736520DD
:103D600074686520646973706C6179210D0A0000C4
:103D70008C00002069000020680000206400002002
:103D8000FC5E0000000000207C000020D5530000F5
:103D90000100002078000020FC020020496E7661BE
:103DA0006C696420636F6D6D616E643A2025730DDC
:103DB0000A0000006C000020740000201D03002099
:103DC000546F6F206D616E7920617267756D656EDD
:103DD000747320666F7220636F6D6D616E64202551
:103DE000730D0A0079000020496E76616C696420C9
:103DF000617267756D656E742D256420257320666C
:103E00006F7220636F6D6D616E642025730D0A0003
:103E1000456D70747920617267756D656E742D25BE
:103E20006420666F7220636F6D6D616E6420257310
:103E30000D0A000008F10108FC480068401C80459C
:103E4000FFF6CAAE00BF00BFF948007800287FF433
:103E500050AE00BFF7480078052813D2DFE800F025
:103E60000306090C0F00FEF7EBFD11E0FEF7ACFFB7
:103E70000EE0FEF70BFD0BE0FEF726FC08E0FEF778
:103E8000C1FE05E00020EB490870FEF7D9FD00BF38
:103E900000BFE948007800287DD00020E64908707E
:103EA0000121E648FDF7F2F908B1012000E0002009
:103EB000E34908700221E148FDF7E8F908B1012063
:103EC00000E00020DF490870DD480078B0BBDE4824
:103ED0000078012833D1DD480068DD4908600846D4
:103EE0000068DC49B0FBF1FAD94800684EF6602161
:103EF000B0FBF1F03C21B0FBF1F201FB1204D4481D
:103F000000684FF47A71B0FBF1F03C21B0FBF1F2A4
:103F100001FB1205CE4800684FF47A71B0FBF1F254
:103F200001FB12095346CCA23221D7488DE830025A
:103F3000FCF79CFAD448FEF7A3FA66E0FFE7C04816
:103F40000078012861D1C048007800285DD1BF48C1
:103F50000068CE49086008460068BE49B0FBF1FA27
:103F6000CA4800684EF66021B0FBF1F03C21B0FB7E
:103F7000F1F201FB1204C54800684FF47A71B0FBFE
:103F8000F1F03C21B0FBF1F201FB1205BF480068E3
:103F90004FF47A7100E0EAE0B0FBF1F201FB1209A4
:103FA0005346BBA23221B8488DE83002FCF75EFAD6
:103FB000B548FEF765FAB5480068A5490968471A8B
:103FC000A448B7FBF0FA4EF66020B7FBF0F03C21B6
:103FD000B0FBF1F201FB12044FF47A70B7FBF0F082
:103FE000B0FBF1F201FB12054FF47A70B7FBF0F170
:103FF00000FB11795346B2A23221A3488DE830026A
:10400000FCF734FAA048FEF73BFA8E480078E8BB8C
:10401000B748007801283ED18C480068B54908604F
:10402000084600688B49B0FBF1FAB24800684EF6CA
:104030006021B0FBF1F03C21B0FBF1F201FB120476
:10404000AC4800684FF47A71B0FBF1F03C21B0FB52
:10405000F1F201FB1205A74800684FF47A71B0FB3A
:10406000F1F201FB12095346A3A2322186488DE8E2
:104070003002FCF7FBF98448FEF702FAAA4803680D
:10408000AA480278AA480178AA4800E003E000683C
:10409000FEF704FA63E06B48007801285FD194488A
:1040A000007800285BD169480068A3490860084689
:1040B00000686849B0FBF1FA9F4800684EF660213D
:1040C000B0FBF1F03C21B0FBF1F201FB12049A4885
:1040D00000684FF47A71B0FBF1F03C21B0FBF1F2D3
:1040E00001FB1205944800684FF47A71B0FBF1F2BD
:1040F00001FB1209534691A2322163488DE8300238
:10410000FCF7B4F96048FEF7BBF98B4800687949C1
:104110000968471A4F48B7FBF0FA4EF66020B7FB24
:10412000F0F03C21B0FBF1F201FB12044FF47A7085
:10413000B7FBF0F0B0FBF1F201FB12054FF47A701F
:10414000B7FBF0F100FB1179534688A232214E48AB
:104150008DE83002FCF78AF94B48FEF791F93848B0
:1041600000783949087037480078614908708B48F1
:104170000078E8B3002089490870894800680E2853
:1041800041D28848006898B9002280218648FDF70E
:10419000F7FA83480068401C814908608348096831
:1041A00030F81100642190FBF1F07E4908602AE0AC
:1041B0007C480068401E7B490860012280217A48C3
:1041C000FDF7DEFA7A487649096830F81100794936
:1041D00031F8100078490968B1FBF0F842464FF415
:1041E00080717148FDF7C3FA4FF480716E4800E0AA
:1041F00018E0FDF7B3FA4FEA5008424640F20711C3
:104200006948FDF7C5FA00212220FDF797F86B49B0
:1042100008700846007808B100F0D4F867480078C4
:104220006749087000BFFFF7C4B8000074000020A1
:1042300001000020F50000200E00002000D0034007
:104240008500002086000020870000209C000020C0
:10425000A000002080EE3600417420253032643A00
:10426000253032643A253032643A253033642C20CC
:104270005553525F535731206973207072657373C1
:1042800065642E0D0A000000FC010020A80000203B
:10429000417420253032643A253032643A25303278
:1042A000643A253033642C205553525F53573120E4
:1042B00069732072656C65617365642E0D0A000078
:1042C0005553525F53573120697320707265737371
:1042D000656420666F7220253032643A253032647E
:1042E0003A253032643A253033642E0D0A0A000034
:1042F00088000020A4000020417420253032643A58
:10430000253032643A253032643A253033642C202B
:104310005553525F5357322069732070726573731F
:1043200065642E0D0A0000008C000020690000204A
:104330006800002064000020AC00002041742025AB
:104340003032643A253032643A253032643A2530CE
:1043500033642C205553525F5357322069732072B7
:10436000656C65617365642E0D0A00005553525FDC
:1043700053573220697320707265737365642066C9
:104380006F7220253032643A253032643A2530325B
:10439000643A253033642E0D0A0A0000070000201D
:1043A000EC000020F000002000800240D00000203F
:1043B000B40000204E590000B00000201C00002076
:1043C0001D00002010B5DF480078FF2800D110BD87
:1043D0000124B1E1DC48005DDA4909780843DA4993
:1043E000095D884273D1D848005DD84909780843EF
:1043F000FF28F7D1092C09D2DFE804F00509131DC5
:1044000027374152F6000020D149087091E1D14888
:10441000007828B90120CE4908700020CE490870E4
:1044200087E1CC48007828B90220C94908700020EB
:10443000C94908707DE1C748007828B90320C449FC
:1044400008700020C449087073E10020C149087059
:10445000C24908700120C0490870C1480068C149BC
:1044600008600420BA49087063E1BA48007880F017
:104470000100B84908700020B849087059E1B548F2
:10448000007860B1B5480078042803D10020B34912
:10449000087004E0B1480078401CB049087048E159
:1044A000AC4800780028B1D0A948007805286FD220
:1044B000DFE800F003366FB2EB00A848007805286B
:1044C0002CD2DFE800F003050B121A0026E032E1DF
:1044D000A54800680A30A44908601FE0A2480068A7
:1044E00000F57A70A049086018E09F4800684EF611
:1044F000602108449C49086010E09B4800689B4983
:10450000084499490860084600689949884204D3DC
:1045100095480068401A9449086000BF00BFE6E073
:104520008E480078052831D2DFE800F003040A1035
:1045300018002BE08F480068401C8E49086025E079
:104540008C48006864308B4908601FE08948006827
:1045500041F2707108448749086017E08548006897
:1045600085490844834908600846006880498842B4
:104570000BD380480068401A7E4908607F4A804912
:104580008048FDF7AAFF00F079FC00BF00BFAEE055
:10459000ACE07248007805283CD2DFE800F0030464
:1045A0000C14260036E0754A75497648FDF795FFEC
:1045B00000F064FC2EE0714A71497248FDF7FBFF80
:1045C00000F05CFC26E06F480068401C6D49086004
:1045D0000846006842F21071884202D10020694901
:1045E000086000F04BFC15E083E06648006864302A
:1045F000644908600846006842F21071884206D398
:1046000060480068A0F50C5028385E49086000F04A
:1046100035FC00BF00BF6AE050480078052832D260
:10462000DFE800F003040C141E002CE0564800687C
:10463000401C5549086000F06BFB24E052480068BC
:1046400064305149086000F063FB1CE04E4800688C
:1046500041F2707108444C49086000F059FB12E0C7
:1046600049480068444908444749086008460068CA
:104670004649884204D344480068401A42490860C9
:1046800000F046FB00BF00BF31E034480078052849
:104690002AD2DFE800F003040A10180024E03148B1
:1046A0000068401C2F4908601EE02E4800686430F6
:1046B0002C49086018E02B48006841F270710844EA
:1046C0002849086010E0274800682B49084425491C
:1046D0000860084600682D49884204D321480068D4
:1046E000401A2049086000BF00BF00E000BF00BFC3
:1046F0001FE0274800680E280FD12648006860B9DF
:104700000020234908602448096830F8110064211A
:1047100090FBF1F01F4908600AE00E201C49086078
:1047200000201C490860002280211C48FDF728F861
:1047300000BF00BF4BE6641C092CFFF64BAE00BF68
:1047400045E600001C000020664F00001D00002010
:10475000F500002083000020820000201F000020C0
:1047600098000020900000209C00002080EE360081
:10477000005C26058C000020407E050069000020BA
:1047800068000020640000209400002000D6830010
:10479000EC000020F0000020D0000020008002404B
:1047A0002DE9F04F8BB0DFF8B0A19AF800A0BAF174
:1047B000000F06D0DFF8A4A19AF800A0BAF1000F0C
:1047C00009D0DFF89CA1DAF800A00AF1010ADFF8AD
:1047D00090B1CBF800A0DFF888A1DAF800A0DFF8EC
:1047E00084B1BAFBFBF1DFF878A1DAF800A04EF64D
:1047F000602BBAFBFBFA4FF03C0BBAFBFBFE0BFB4A
:104800001EA2DFF85CA1DAF800A04FF47A7BBAFBB5
:10481000FBFA4FF03C0BBAFBFBFE0BFB1EA3DFF8D1
:1048200040A1DAF800A04FF47A7BBAFBFBFE0BFB49
:104830001EA04FF00A0AB1FBFAF4B1FBFAFB0AFB27
:104840001B1504F1300A0AF0FF0605F1300A0AF0E0
:10485000FF074FF00A0AB2FBFAFCB2FBFAFB0AFBB5
:104860001B2ACDF828A00CF1300A0AF0FF08DDF869
:1048700028A00AF1300A0AF0FF094FF00A0AB3FB38
:10488000FAFACDF824A04FF00A0AB3FBFAFB0AFBB0
:104890001B3ACDF820A0DDF824A00AF1300A0AF076
:1048A000FF0ACDF81CA0DDF820A00AF1300A0AF0BA
:1048B000FF0ACDF818A04FF0640AB0FBFAFACDF861
:1048C00014A04FF00A0AB0FBFAFA4FF00A0BBAFB39
:1048D000FBFE0BFB1EAACDF810A0DA46B0FBFAFBDC
:1048E0000AFB1B0ACDF80CA0DDF814A00AF1300A6F
:1048F0000AF0FF0ACDF808A0DDF810A00AF1300A8E
:104900000AF0FF0ACDF804A0DDF80CA00AF1300A85
:104910000AF0FF0ACDF800A0DFF84CA08AF800608A
:104920008AF801708AF802808AF80390DFF838B0BC
:10493000DDF81CA08BF804A0DDF818A08BF805A00A
:10494000DDF808A08BF806A0DDF804A08BF807A01E
:104950000BB0BDE8F08F000083000020F5000020C0
:104960009C00002080EE3600410000202DE9F04F31
:1049700089B0DFF8E8A19AF800A0BAF1000F06D0DC
:10498000DFF8DCA19AF800A0BAF1040F1ED0DFF81E
:10499000D4A19AF800A0BAF1000F11D0DFF8C8A195
:1049A000DAF800A0BAF1000F0AD0DFF8BCA1DAF8FB
:1049B00000A0AAF1010ADFF8B0B1CBF800A005E031
:1049C0004FF0000ADFF89CB18BF800A0DFF898A147
:1049D000DAF800A0BAF1010F13D14FF0000ADFF8A6
:1049E0008CB1CBF800A0DFF888A1DBF800B03AF872
:1049F0001BA04FF0640B9AFBFBFADFF878B1CBF801
:104A000000A0DFF864A1DAF800A0DFF86CB1BAFB0F
:104A1000FBF0DFF854A1DAF800A041F2707BBAFB9A
:104A2000FBFA4FF03C0BBAFBFBFE0BFB1EA1DFF8C1
:104A300038A1DAF800A04FF0640BBAFBFBFA4FF094
:104A40003C0BBAFBFBFE0BFB1EA2DFF81CA1DAF845
:104A500000A04FF0640BBAFBFBFE0BFB1EA34FF054
:104A60000A0AB0FBFAF4B0FBFAFB0AFB1B0504F1DF
:104A7000300A0AF0FF0605F1300A0AF0FF074FF08E
:104A80000A0AB1FBFAFCB1FBFAFB0AFB1B1ACDF8D0
:104A900020A00CF1300A0AF0FF08DDF820A00AF18E
:104AA000300A0AF0FF094FF00A0AB2FBFAFACDF811
:104AB0001CA04FF00A0AB2FBFAFB0AFB1B2ACDF836
:104AC00018A0DDF81CA00AF1300A0AF0FF0ACDF8A0
:104AD00014A0DDF818A00AF1300A0AF0FF0ACDF898
:104AE00010A04FF00A0AB3FBFAFACDF80CA04FF071
:104AF0000A0AB3FBFAFB0AFB1B3ACDF808A0DDF863
:104B00000CA00AF1300A0AF0FF0ACDF804A0DDF883
:104B100008A00AF1300A0AF0FF0ACDF800A0DFF879
:104B20005CA08AF800608AF801708AF802808AF82E
:104B30000390DFF848B0DDF814A08BF804A0DDF88E
:104B400010A08BF805A0DDF804A08BF806A0DDF816
:104B500000A08BF807A009B0BDE8F08F830000200B
:104B6000F50000208200002090000020EC000020D2
:104B7000D0000020F0000020407E05003900002019
:104B80002DE9F04F8CB05548007818B154480078A2
:104B9000012816D053480068401C52490860084656
:104BA00000685149096888420BD100204F490860CC
:104BB0004F48096830F81100642190FBF1F04D492D
:104BC0000860484800684C4988420BD34548006853
:104BD000401A44490860494A49494A48FDF77DFC62
:104BE00000F04CF93F4800684749B0FBF1F43D48FC
:104BF000006841F27071B0FBF1F03C21B0FBF1F2C2
:104C000001FB1205374800686421B0FBF1F03C213C
:104C1000B0FBF1F201FB1206324800686421B0FBE0
:104C2000F1F201FB12070A20B4FBF0F8B4FBF0F13B
:104C300000FB114908F13000C0B20B9009F13000BF
:104C4000C0B20A900A20B5FBF0F009900A20B5FB2B
:104C5000F0F100FB115008900998303000F0FF0A85
:104C60000898303000F0FF0B0A20B6FBF0F00790F8
:104C70000A20B6FBF0F100FB116006900798303077
:104C8000C0B2059006983030C0B204900A20B7FB3D
:104C9000F0F003900A20B7FBF0F100FB11700290D6
:104CA00003983030C0B2019002983030C0B200900A
:104CB00016490B9808700A984870084680F802A0B8
:104CC00080F803B0059808710498487101988871BC
:104CD0000098C8710CB0BDE8F08F00008300002080
:104CE000F50000208C00002094000020EC00002043
:104CF000D0000020F000002000D6830069000020D2
:104D00006800002064000020407E05002100002093
:104D10002DE9F04F89B0DFF858A1DAF800A0DFF8EC
:104D200054B1BAFBFBF0DFF848A1DAF800A041F279
:104D3000707BBAFBFBFA4FF03C0BBAFBFBFE0BFBA4
:104D40001EA1DFF82CA1DAF800A04FF0640BBAFB2B
:104D5000FBFA4FF03C0BBAFBFBFE0BFB1EA2DFF88D
:104D600010A1DAF800A04FF0640BBAFBFBFE0BFBBE
:104D70001EA34FF00A0AB0FBFAF4B0FBFAFB0AFBE1
:104D80001B0504F1300A0AF0FF0605F1300A0AF0AB
:104D9000FF074FF00A0AB1FBFAFCB1FBFAFB0AFB72
:104DA0001B1ACDF820A00CF1300A0AF0FF08DDF83C
:104DB00020A00AF1300A0AF0FF094FF00A0AB2FBFC
:104DC000FAFACDF81CA04FF00A0AB2FBFAFB0AFB74
:104DD0001B2ACDF818A0DDF81CA00AF1300A0AF051
:104DE000FF0ACDF814A0DDF818A00AF1300A0AF085
:104DF000FF0ACDF810A04FF00A0AB3FBFAFACDF87B
:104E00000CA04FF00A0AB3FBFAFB0AFB1B3ACDF8E1
:104E100008A0DDF80CA00AF1300A0AF0FF0ACDF86C
:104E200004A0DDF808A00AF1300A0AF0FF0ACDF864
:104E300000A0DFF844A08AF800608AF801708AF8C0
:104E400002808AF80390DFF830B0DDF814A08BF808
:104E500004A0DDF810A08BF805A0DDF804A08BF805
:104E600006A0DDF800A08BF807A009B0BDE8F08F20
:104E700094000020407E0500310000202848006892
:104E80004FF47A71B0FBF1F03030264908702448B5
:104E900000686421B0FBF1F00A21B0FBF1F201FBE4
:104EA000120030301F4948701D4800680A21B0FBCD
:104EB000F1F0B0FBF1F201FB1200303019498870BB
:104EC000174800680A21B0FBF1F201FB12003030F4
:104ED0001449C870144800780A2190FBF1F0303072
:104EE00010490871104800780A2190FBF1F201FB8B
:104EF000120030300B4948710C4800780A2190FBB1
:104F0000F1F0303007498871084800780A2190FB99
:104F1000F1F201FB120030300249C8717047000005
:104F200064000020290000206800002069000020A3
:104F300010B500290AD00878002807D00548784421
:104F4000FBF7EAFC002801D0002010BD024878449D
:104F500010BD0000421000003A1000004FF04070F9
:104F6000E1EE100A7047FFFEFDFBF7EFDFBF7FFFAA
:104F70003FCFF3FCFFFCF3CF3F30313233343536D3
:104F8000373839416243644546484C506F2E2D5F97
:104F9000203F065B4F666D7D077F6F777C395E79BA
:104FA000717638735C80400800BF86DBCFE6EDFD8C
:104FB00087FFEFF7FCB9DEF9F1F6B8F3DC80C088C3
:104FC000003F305B79746D6F387F7DBFB0DBF9F4E3
:104FD000EDEFB8FFFD2020202020202023202020DE
:104FE00020202020202020202020202023202020BE
:104FF00020202020202020202020202023202020AE
:1050000020202020202020202020202020202020A0
:10501000202020202020202020202020202320208D
:10502000202020202020202020202020232020207D
:10503000202020202020202020202020232020206D
:105040002020202020202023202020202323232351
:105050002323232020202020202020202023202044
:10506000202020202020202020202020232020203D
:10507000202020202020202020202023202320202A
:105080002020202020202020232020202320202317
:1050900020202320202023232323232323232323EF
:1050A00023232323202020202020202023202020F1
:1050B00020202020202020202020232020202320EA
:1050C00020202020202020202320202023232323D1
:1050D00023232320202020202020232020202020C4
:1050E000232020202020232323232323232323239F
:1050F000232323232020202020232020202020239E
:105100002020202020202020202020202320202399
:105110002020232020202020202023202020202089
:105120002023202020202020202020202320202079
:10513000202020202020202023202020202020206C
:10514000232020202020232323202020232020234D
:105150002020232020202020202320202020202049
:105160002020232320202020202020232023202033
:105170002020202020202023202323232323232317
:105180002023232320202020232020202323232307
:105190002323232020202020232023202020202000
:1051A00023202020202020202020202320232020F6
:1051B00020202020202023202020202023202020E9
:1051C00020202320202020202320202020202023D6
:1051D00020202020202020232020202320202023C6
:1051E00020202020202020202020202320202320B9
:1051F00020202020202020202020202023202020AC
:10520000202020202020202023202023232323238C
:10521000232323232020202020202020232023207C
:105220002020202020202020202023202020232078
:105230002020202020202020232323232323232356
:105240002320202020202020232020202020232352
:10525000202020202020202020202020202320204B
:105260002020202020202020202023202020202338
:10527000202020202020202020202020232020202B
:105280002020202020202020232023202023202312
:105290002320202020202020202020202320232005
:1052A00020202020202020202023202020202023F8
:1052B00020202020202020202320202023202020E8
:1052C00023202020202020202323202023202023CF
:1052D00020232020202020202020232320202023C2
:1052E00023202020202020202320202020202020B8
:1052F00023202020202020202023202023202023A2
:105300002020202020202020232020232020202394
:105310002020232320202020232320202020202081
:105320002023232320202023202020202020202071
:10533000202323232020202020202320232023205B
:105340002020202020202020202023202020202357
:105350002020232020202323202020202020202044
:105360002020232020202320202020202020202037
:10537000202023202020232323232323232323230C
:105380002323232020202020202020202020202311
:10539000202020202020202020202020202020200D
:1053A00020202020202020202020202020202020FD
:1053B00020202020202020202020202020202020ED
:1053C00020202020202020202020202020202020DD
:1053D0002020202020596F752063616E2075736531
:1053E00020746869732061732061207465726D692F
:1053F0006E616C2E2054727920636F6D6D616E64E6
:10540000206C696B652022494E4954222C2022537E
:105410004554222C2022474554222C202252554EFE
:10542000222C202252455645525345222C202253ED
:10543000415645222E000000000000000000000040
:10544000000000000000000000000000000000005C
:10545000000000000000000000000000000000004C
:10546000000000000000000000000000000000003C
:10547000000000000000000000000000000000002C
:10548000000000000000000000000000000000001C
:1054900000000000000000000000000000496E69EC
:1054A0007469616C697A6520616C6C2074696D65E2
:1054B00072732C207573652022494E495420434C49
:1054C0004F434B222E0000000000000000000000AF
:1054D00000000000000000000000000000000000CC
:1054E00000000000000000000000000000000000BC
:1054F00000000000000000000000000000000000AC
:10550000000000000000000000000000000000009B
:10551000000000000000000000000000000000008B
:10552000000000000000000000000000000000007B
:10553000000000000000000000000000000000006B
:10554000000000000000000000000000000000005B
:10555000000000000000000000000000000000004B
:1055600000000000005365742074696D652C206490
:105570006174652C20616C61726D206F7220737490
:105580006F7077617463682C2075736520225345B2
:10559000542054494D452048483A4D4D3A535322E2
:1055A000206F7220225345542044415445205959BC
:1055B00059592E4D4D2E444422206F7220225345BE
:1055C0005420414C41524D2048483A4D4D3A535396
:1055D00022206F7220225345542053545741544384
:1055E000482048483A4D4D3A5353222E00000000BF
:1055F00000000000000000000000000000000000AB
:10560000000000000000000000000000000000009A
:10561000000000000000000000000000000000008A
:10562000000000000000000000000000004765745A
:105630002072756E74696D652C2074696D652C20FF
:10564000646174652C20616C61726D74696D652094
:105650006F722073746F7077617463682074696D02
:10566000652C2075736520224745542052554E54B1
:10567000494D4522206F7220224745542054494D00
:105680004522206F72202247455420444154452230
:10569000206F72202247455420414C41524D222018
:1056A0006F72202247455420535457415443482297
:1056B0002E000000000000000000000000000000BC
:1056C00000000000000000000000000000000000DA
:1056D00000000000000000000000000000000000CA
:1056E00000000000000000000000000000000000BA
:1056F0000000000000446973706C61792072756E5F
:1057000074696D652C2074696D652C206461746505
:105710002C20616C61726D74696D65206F722073ED
:10572000746F7077617463682C20757365202252E2
:10573000554E2052554E54494D4522206F7220221D
:1057400052554E2054494D4522206F722022525509
:105750004E204441544522206F72202252554E2043
:10576000414C41524D22206F72202252554E2053FF
:10577000545741544348222E00000000000000000E
:105780000000000000000000000000000000000019
:105790000000000000000000000000000000000009
:1057A00000000000000000000000000000000000F9
:1057B00000000000000000000000000000526576BC
:1057C000657273652074686520646973706C6179B3
:1057D0002C20757365202252455645525345222E82
:1057E00000000000000000000000000000000000B9
:1057F00000000000000000000000000000000000A9
:105800000000000000000000000000000000000098
:105810000000000000000000000000000000000088
:105820000000000000000000000000000000000078
:105830000000000000000000000000000000000068
:105840000000000000000000000000000000000058
:105850000000000000000000000000000000000048
:105860000000000000000000000000000000000038
:105870000000000000000000000000000000000028
:105880000000000000536176652074686520637530
:105890007272656E742074696D6520616E64206437
:1058A00061746520746F20666C6173682C20757359
:1058B00065202253415645222E00000000000000C2
:1058C00000000000000000000000000000000000D8
:1058D00000000000000000000000000000000000C8
:1058E00000000000000000000000000000000000B8
:1058F00000000000000000000000000000000000A8
:105900000000000000000000000000000000000097
:105910000000000000000000000000000000000087
:105920000000000000000000000000000000000077
:105930000000000000000000000000000000000067
:105940000000000000000000000000000000000057
:10595000060126014A015D018801B801EE010B0232
:1059600000400040100000000080054010000000D2
:1059700000500040110000000090054011000000A0
:10598000006000401200000000A00540120000006E
:10599000007000401300000000B00540130000003C
:1059A000004002401400000000C005401400000048
:1059B000005002402E00000000D005402E000000E4
:1059C000006002402F00000000E005402F000000B2
:1059D000007002403000000000F005403000000080
:1059E00000D00340460000000000064046000000D2
:1059F000001006404700000000200640480000005C
:105A0000003006407F00000000400640800000009B
:105A10000050064084000000006006408C0000003A
:105A20000040004010000000008005401000000011
:105A300000500040110000000090054011000000DF
:105A4000006000401200000000A0054012000000AD
:105A5000007000401300000000B00540130000007B
:105A6000004002401400000000C005401400000087
:105A7000005002402E00000000D005402E00000023
:105A8000006002402F00000000E005402F000000F1
:105A9000007002403000000000F0054030000000BF
:105AA00000D0034043000000000006404300000017
:105AB00000100640440000000020064045000000A1
:105AC0000030064058000000004006405900000029
:105AD000005006405C0000000060064064000000CA
